{
  "_format": "hh-sol-artifact-1",
  "contractName": "AssignmentHashing",
  "sourceName": "contracts/AssignmentTimestamp.sol",
  "abi": [
    {
      "anonymous": false,
      "inputs": [
        {
          "indexed": true,
          "internalType": "address",
          "name": "student",
          "type": "address"
        },
        {
          "indexed": false,
          "internalType": "string",
          "name": "assignmentId",
          "type": "string"
        },
        {
          "indexed": false,
          "internalType": "string",
          "name": "fileHash",
          "type": "string"
        },
        {
          "indexed": false,
          "internalType": "uint256",
          "name": "timestamp",
          "type": "uint256"
        }
      ],
      "name": "AssignmentSubmitted",
      "type": "event"
    },
    {
      "inputs": [
        {
          "internalType": "address",
          "name": "_student",
          "type": "address"
        },
        {
          "internalType": "string",
          "name": "_assignmentId",
          "type": "string"
        }
      ],
      "name": "getSubmission",
      "outputs": [
        {
          "internalType": "string",
          "name": "",
          "type": "string"
        },
        {
          "internalType": "uint256",
          "name": "",
          "type": "uint256"
        }
      ],
      "stateMutability": "view",
      "type": "function"
    },
    {
      "inputs": [
        {
          "internalType": "string",
          "name": "_assignmentId",
          "type": "string"
        },
        {
          "internalType": "string",
          "name": "_fileHash",
          "type": "string"
        }
      ],
      "name": "submitAssignment",
      "outputs": [],
      "stateMutability": "nonpayable",
      "type": "function"
    }
  ],
  "bytecode": "0x608060405234801561001057600080fd5b50610bfb806100206000396000f3fe608060405234801561001057600080fd5b50600436106100365760003560e01c806376a759341461003b57806379e80d111461006c575b600080fd5b610055600480360381019061005091906105db565b610088565b6040516100639291906106cf565b60405180910390f35b610086600480360381019061008191906106ff565b61027f565b005b60606000806000808673ffffffffffffffffffffffffffffffffffffffff1673ffffffffffffffffffffffffffffffffffffffff168152602001908152602001600020846040516100d991906107b3565b9081526020016040518091039020604051806060016040529081600082018054610102906107f9565b80601f016020809104026020016040519081016040528092919081815260200182805461012e906107f9565b801561017b5780601f106101505761010080835404028352916020019161017b565b820191906000526020600020905b81548152906001019060200180831161015e57829003601f168201915b50505050508152602001600182018054610194906107f9565b80601f01602080910402602001604051908101604052809291908181526020018280546101c0906107f9565b801561020d5780601f106101e25761010080835404028352916020019161020d565b820191906000526020600020905b8154815290600101906020018083116101f057829003601f168201915b5050505050815260200160028201548152505090506000816040015103610269576040517f08c379a000000000000000000000000000000000000000000000000000000000815260040161026090610876565b60405180910390fd5b8060200151816040015192509250509250929050565b60008060003373ffffffffffffffffffffffffffffffffffffffff1673ffffffffffffffffffffffffffffffffffffffff168152602001908152602001600020836040516102cd91906107b3565b9081526020016040518091039020600201541461031f576040517f08c379a0000000000000000000000000000000000000000000000000000000008152600401610316906108e2565b60405180910390fd5b6040518060600160405280838152602001828152602001428152506000803373ffffffffffffffffffffffffffffffffffffffff1673ffffffffffffffffffffffffffffffffffffffff1681526020019081526020016000208360405161038691906107b3565b908152602001604051809103902060008201518160000190816103a99190610aae565b5060208201518160010190816103bf9190610aae565b50604082015181600201559050503373ffffffffffffffffffffffffffffffffffffffff167f4718c3a483b5bfaca963268d37ddc6a1533c15333f9f70579e14f35245e7193383834260405161041793929190610b80565b60405180910390a25050565b6000604051905090565b600080fd5b600080fd5b600073ffffffffffffffffffffffffffffffffffffffff82169050919050565b600061046282610437565b9050919050565b61047281610457565b811461047d57600080fd5b50565b60008135905061048f81610469565b92915050565b600080fd5b600080fd5b6000601f19601f8301169050919050565b7f4e487b7100000000000000000000000000000000000000000000000000000000600052604160045260246000fd5b6104e88261049f565b810181811067ffffffffffffffff82111715610507576105066104b0565b5b80604052505050565b600061051a610423565b905061052682826104df565b919050565b600067ffffffffffffffff821115610546576105456104b0565b5b61054f8261049f565b9050602081019050919050565b82818337600083830152505050565b600061057e6105798461052b565b610510565b90508281526020810184848401111561059a5761059961049a565b5b6105a584828561055c565b509392505050565b600082601f8301126105c2576105c1610495565b5b81356105d284826020860161056b565b91505092915050565b600080604083850312156105f2576105f161042d565b5b600061060085828601610480565b925050602083013567ffffffffffffffff81111561062157610620610432565b5b61062d858286016105ad565b9150509250929050565b600081519050919050565b600082825260208201905092915050565b60005b83811015610671578082015181840152602081019050610656565b60008484015250505050565b600061068882610637565b6106928185610642565b93506106a2818560208601610653565b6106ab8161049f565b840191505092915050565b6000819050919050565b6106c9816106b6565b82525050565b600060408201905081810360008301526106e9818561067d565b90506106f860208301846106c0565b9392505050565b600080604083850312156107165761071561042d565b5b600083013567ffffffffffffffff81111561073457610733610432565b5b610740858286016105ad565b925050602083013567ffffffffffffffff81111561076157610760610432565b5b61076d858286016105ad565b9150509250929050565b600081905092915050565b600061078d82610637565b6107978185610777565b93506107a7818560208601610653565b80840191505092915050565b60006107bf8284610782565b915081905092915050565b7f4e487b7100000000000000000000000000000000000000000000000000000000600052602260045260246000fd5b6000600282049050600182168061081157607f821691505b602082108103610824576108236107ca565b5b50919050565b7f4e6f207375626d697373696f6e20666f756e6400000000000000000000000000600082015250565b6000610860601383610642565b915061086b8261082a565b602082019050919050565b6000602082019050818103600083015261088f81610853565b9050919050565b7f416c7265616479207375626d6974746564000000000000000000000000000000600082015250565b60006108cc601183610642565b91506108d782610896565b602082019050919050565b600060208201905081810360008301526108fb816108bf565b9050919050565b60008190508160005260206000209050919050565b60006020601f8301049050919050565b600082821b905092915050565b6000600883026109647fffffffffffffffffffffffffffffffffffffffffffffffffffffffffffffffff82610927565b61096e8683610927565b95508019841693508086168417925050509392505050565b6000819050919050565b60006109ab6109a66109a1846106b6565b610986565b6106b6565b9050919050565b6000819050919050565b6109c583610990565b6109d96109d1826109b2565b848454610934565b825550505050565b600090565b6109ee6109e1565b6109f98184846109bc565b505050565b5b81811015610a1d57610a126000826109e6565b6001810190506109ff565b5050565b601f821115610a6257610a3381610902565b610a3c84610917565b81016020851015610a4b578190505b610a5f610a5785610917565b8301826109fe565b50505b505050565b600082821c905092915050565b6000610a8560001984600802610a67565b1980831691505092915050565b6000610a9e8383610a74565b9150826002028217905092915050565b610ab782610637565b67ffffffffffffffff811115610ad057610acf6104b0565b5b610ada82546107f9565b610ae5828285610a21565b600060209050601f831160018114610b185760008415610b06578287015190505b610b108582610a92565b865550610b78565b601f198416610b2686610902565b60005b82811015610b4e57848901518255600182019150602085019450602081019050610b29565b86831015610b6b5784890151610b67601f891682610a74565b8355505b6001600288020188555050505b505050505050565b60006060820190508181036000830152610b9a818661067d565b90508181036020830152610bae818561067d565b9050610bbd60408301846106c0565b94935050505056fea2646970667358221220a2ef94570ae05774187158ef8814b0f7c14137dbbccb023625a70e14ff829f1164736f6c63430008130033",
  "linkReferences": {},
  "deployedLinkReferences": {}
}